:04000000130101FEE9
:04000100232E810029
:0400020013040102E0
:04000300232604FEAE
:04000400930740011D
:040005002324F4FEBE
:04000600232604FEAB
:040007006F00C001C5
:04000800832784FEC8
:040009000327C4FE07
:04000A0023A0E70048
:04000B008327C4FE85
:04000C0093871700BF
:04000D002326F4FEB4
:04000E000327C4FE02
:04000F009307F00162
:04001000E3D0E7FE54
:04001100832784FEBF
:040012001307F01FC1
:0400130023A0E7003F
:04001400930700004E
:040015001385070048
:040016000324C101FD
:0400170013010102CE
:0400180067800000FD
:0400190000000000E3
:04001A0000000000E2
:04001B0000000000E1
:04001C0000000000E0
:04001D0000000000DF
:04001E0000000000DE
:04001F0000000000DD
:00000001FF
