:020000021000EC
:10007400B70700009387070063880700370501006E
:10008400130505496F00403F678000009721000079
:10009400938101D5138541C3138601C53306A64058
:1000A40093050000EF00801D170500001305053DB2
:1000B40063080500170500001305853DEF00C03BEC
:1000C400EF00001203250100930541001306000010
:1000D400EF00C0076F00C00D03C741C363140704DA
:1000E400130101FF2324810013840700B7070000D4
:1000F4002326110093870700638A07003715010040
:100104001305055D97000000E70000009307100049
:100114008320C100238AF1C2032481001301010159
:100124006780000067800000B7070000938707001E
:10013400638C070037150100938581C31305055DA2
:10014400170300006700000067800000130101FE30
:10015400232E810013040102232604FE9307400189
:100164002324F4FE232604FE6F00C001832784FEAB
:100174000327C4FE23A0E7008327C4FE9387170048
:100184002326F4FE0327C4FE9307F001E3D0E7FE21
:10019400832784FE1307F01F23A0E70093070000C2
:1001A400138507000324C1011301010267800000C5
:1001B400130101FF9305000023248100232611006D
:1001C40013040500EF00401903A581C28327C5036A
:1001D40063840700E780070013050400EF00403A3A
:1001E400130101FF2324810023202101371401007E
:1001F400371901009307445D1309495D3309F94038
:100204002326110023229100135929406300090277
:100214001304445D930400008327040093841400B2
:1002240013044400E7800700E31899FE3714010023
:10023400371901009307445D1309C95D3309F94077
:1002440013592940630009021304445D9304000018
:10025400832704009384140013044400E7800700F8
:10026400E31899FE8320C100032481008324410004
:100274000329010013010101678000001303F0004A
:1002840013070500637EC3029377F7006390070AA0
:1002940063920508937606FF1376F600B386E600AC
:1002A4002320B7002322B7002324B7002326B70056
:1002B40013070701E366D7FE631406006780000096
:1002C400B306C3409396260097020000B3865600F7
:1002D4006780C6002307B700A306B7002306B7004C
:1002E400A305B7002305B700A304B7002304B70090
:1002F400A303B7002303B700A302B7002302B70088
:10030400A301B7002301B700A300B7002300B7007F
:100314006780000093F5F50F93968500B3E5D5004B
:1003240093960501B3E5D5006FF0DFF693962700A9
:1003340097020000B386560093820000E78006FA15
:1003440093800200938707FF3307F7403306F600D4
:10035400E378C3F66FF0DFF3130101FD232C4101B1
:1003640003AA81C2232021032326110203298A140C
:100374002324810223229102232E3101232A5101B5
:1003840023286101232671012324810163000904C8
:10039400130B0500938B0500930A10009309F0FFDB
:1003A400832449001384F4FF6342040293942400D9
:1003B400B304990063840B0483A744106380770516
:1003C4001304F4FF9384C4FFE31634FF8320C102B3
:1003D4000324810283244102032901028329C101E8
:1003E400032A8101832A4101032B0101832BC100CC
:1003F400032C810013010103678000008327490057
:1004040083A644009387F7FF638E870423A2040026
:10041400E38806FA8327891833978A00032C490056
:10042400B377F70063920702E780060003274900C9
:1004340083278A1463148701E304F9F8E38807F82F
:10044400138907006FF0DFF58327C91883A54408D3
:100454003377F700631C070013050B00E7800600E1
:100464006FF0DFFC232289006FF09FFA13850500EB
:10047400E78006006FF09FFB9305050093060000DC
:1004840013060000130500006F000006130101FFAE
:1004940023248100B7170100371401001304C45D3D
:1004A4009387075EB3878740232291002326110098
:1004B40093D42740638004029387C7FF3384870063
:1004C400832704009384F4FF1304C4FFE780070028
:1004D400E39804FE8320C1000324810083244100A7
:1004E400130101016780000003A781C283278714D9
:1004F400638C070403A747001308F001634EE80662
:100504001318270063060502338307012324C30855
:1005140083A88718130610003316E600B3E8C80052
:1005240023A417192324D310930620006304D502AF
:100534001307170023A2E700B387070123A4B7001A
:1005440013050000678000009307C7142324F714E1
:100554006FF05FFA83A6C7181307170023A2E700FA
:1005640033E6C60023A6C718B387070123A4B70040
:1005740013050000678000001305F0FF678000008A
:100584009305000013060000930600001307000003
:10059400930700009308D00573000000634405002E
:1005A4006F000000130101FF2324810013040500E0
:1005B4002326110033048040EF00C000232085006F
:0C05C4006F00000003A501C36780000069
:040000031000009059
:00000001FF
